{
  "contractName": "SmartContract",
  "abi": [
    {
      "anonymous": false,
      "inputs": [
        {
          "indexed": false,
          "internalType": "uint256",
          "name": "newSpeed",
          "type": "uint256"
        },
        {
          "indexed": false,
          "internalType": "string",
          "name": "trackId",
          "type": "string"
        },
        {
          "indexed": false,
          "internalType": "string",
          "name": "vehicleId",
          "type": "string"
        }
      ],
      "name": "DataUpdated",
      "type": "event"
    },
    {
      "inputs": [],
      "name": "aggregatedSpeed",
      "outputs": [
        {
          "internalType": "uint256",
          "name": "",
          "type": "uint256"
        }
      ],
      "stateMutability": "view",
      "type": "function",
      "constant": true
    },
    {
      "inputs": [
        {
          "internalType": "uint256",
          "name": "_newSpeed",
          "type": "uint256"
        },
        {
          "internalType": "string",
          "name": "_trackId",
          "type": "string"
        },
        {
          "internalType": "string",
          "name": "_vehicleId",
          "type": "string"
        }
      ],
      "name": "updateAggregatedData",
      "outputs": [],
      "stateMutability": "nonpayable",
      "type": "function"
    },
    {
      "inputs": [],
      "name": "getLatestAggregatedData",
      "outputs": [
        {
          "internalType": "uint256",
          "name": "",
          "type": "uint256"
        }
      ],
      "stateMutability": "view",
      "type": "function",
      "constant": true
    },
    {
      "inputs": [
        {
          "internalType": "string",
          "name": "id",
          "type": "string"
        }
      ],
      "name": "getVehicleSpeed",
      "outputs": [
        {
          "internalType": "uint256",
          "name": "",
          "type": "uint256"
        }
      ],
      "stateMutability": "view",
      "type": "function",
      "constant": true
    },
    {
      "inputs": [
        {
          "internalType": "string",
          "name": "id",
          "type": "string"
        }
      ],
      "name": "getVehicleCurrentEdge",
      "outputs": [
        {
          "internalType": "string",
          "name": "",
          "type": "string"
        }
      ],
      "stateMutability": "view",
      "type": "function",
      "constant": true
    },
    {
      "inputs": [
        {
          "internalType": "string",
          "name": "id",
          "type": "string"
        }
      ],
      "name": "getVehicleRoute",
      "outputs": [
        {
          "internalType": "string[]",
          "name": "",
          "type": "string[]"
        }
      ],
      "stateMutability": "view",
      "type": "function",
      "constant": true
    },
    {
      "inputs": [
        {
          "internalType": "string",
          "name": "id",
          "type": "string"
        }
      ],
      "name": "getVehicleRouteIndex",
      "outputs": [
        {
          "internalType": "uint256",
          "name": "",
          "type": "uint256"
        }
      ],
      "stateMutability": "view",
      "type": "function",
      "constant": true
    },
    {
      "inputs": [
        {
          "internalType": "string",
          "name": "id",
          "type": "string"
        }
      ],
      "name": "getVehicleNextEdge",
      "outputs": [
        {
          "internalType": "string",
          "name": "",
          "type": "string"
        }
      ],
      "stateMutability": "view",
      "type": "function",
      "constant": true
    },
    {
      "inputs": [
        {
          "internalType": "string",
          "name": "id",
          "type": "string"
        }
      ],
      "name": "getVehicleNextEdgeVehicles",
      "outputs": [
        {
          "internalType": "string[]",
          "name": "",
          "type": "string[]"
        }
      ],
      "stateMutability": "view",
      "type": "function",
      "constant": true
    },
    {
      "inputs": [
        {
          "internalType": "string",
          "name": "id",
          "type": "string"
        },
        {
          "internalType": "uint256",
          "name": "speed",
          "type": "uint256"
        },
        {
          "internalType": "string[]",
          "name": "route",
          "type": "string[]"
        },
        {
          "internalType": "string",
          "name": "current_edge_id",
          "type": "string"
        },
        {
          "internalType": "uint256",
          "name": "route_index",
          "type": "uint256"
        },
        {
          "internalType": "string",
          "name": "next_edge",
          "type": "string"
        },
        {
          "internalType": "string[]",
          "name": "next_edge_vehicles",
          "type": "string[]"
        }
      ],
      "name": "updateVehicleInfo",
      "outputs": [],
      "stateMutability": "nonpayable",
      "type": "function"
    }
  ],
  "bytecode": "0x608060405234801561001057600080fd5b5061153c806100206000396000f3fe608060405234801561001057600080fd5b506004361061009e5760003560e01c8063a60e06cd11610066578063a60e06cd1461016d578063a908baae1461019d578063c5d111b3146101bb578063d2d0faa1146101d7578063e0133f23146102075761009e565b806342002f21146100a35780635c403bb9146100d357806363f35c981461010357806371e7e13f14610133578063a3f9d4cc14610151575b600080fd5b6100bd60048036038101906100b89190610db8565b610237565b6040516100ca9190611202565b60405180910390f35b6100ed60048036038101906100e89190610db8565b610370565b6040516100fa91906112a4565b60405180910390f35b61011d60048036038101906101189190610db8565b610420565b60405161012a91906111e0565b60405180910390f35b61013b6105a0565b60405161014891906112a4565b60405180910390f35b61016b60048036038101906101669190610df9565b6105a6565b005b61018760048036038101906101829190610db8565b6106c9565b60405161019491906111e0565b60405180910390f35b6101a5610849565b6040516101b291906112a4565b60405180910390f35b6101d560048036038101906101d09190610f0f565b610852565b005b6101f160048036038101906101ec9190610db8565b610964565b6040516101fe9190611202565b60405180910390f35b610221600480360381019061021c9190610db8565b610a9d565b60405161022e91906112a4565b60405180910390f35b606060008260405160200161024c91906111c9565b60405160208183030381529060405280519060200120905060006001600083815260200190815260200160002060000180546102879061144e565b9050116102c9576040517f08c379a00000000000000000000000000000000000000000000000000000000081526004016102c090611264565b60405180910390fd5b6001600082815260200190815260200160002060050180546102ea9061144e565b80601f01602080910402602001604051908101604052809291908181526020018280546103169061144e565b80156103635780601f1061033857610100808354040283529160200191610363565b820191906000526020600020905b81548152906001019060200180831161034657829003601f168201915b5050505050915050919050565b6000808260405160200161038491906111c9565b60405160208183030381529060405280519060200120905060006001600083815260200190815260200160002060000180546103bf9061144e565b905011610401576040517f08c379a00000000000000000000000000000000000000000000000000000000081526004016103f890611264565b60405180910390fd5b6001600082815260200190815260200160002060010154915050919050565b606060008260405160200161043591906111c9565b60405160208183030381529060405280519060200120905060006001600083815260200190815260200160002060000180546104709061144e565b9050116104b2576040517f08c379a00000000000000000000000000000000000000000000000000000000081526004016104a990611264565b60405180910390fd5b60016000828152602001908152602001600020600601805480602002602001604051908101604052809291908181526020016000905b828210156105945783829060005260206000200180546105079061144e565b80601f01602080910402602001604051908101604052809291908181526020018280546105339061144e565b80156105805780601f1061055557610100808354040283529160200191610580565b820191906000526020600020905b81548152906001019060200180831161056357829003601f168201915b5050505050815260200190600101906104e8565b50505050915050919050565b60005481565b6000876040516020016105b991906111c9565b6040516020818303038152906040528051906020012090506040518060e0016040528089815260200188815260200187815260200186815260200185815260200184815260200183815250600160008381526020019081526020016000206000820151816000019080519060200190610633929190610b4d565b5060208201518160010155604082015181600201908051906020019061065a929190610bd3565b506060820151816003019080519060200190610677929190610b4d565b506080820151816004015560a082015181600501908051906020019061069e929190610b4d565b5060c08201518160060190805190602001906106bb929190610bd3565b509050505050505050505050565b60606000826040516020016106de91906111c9565b60405160208183030381529060405280519060200120905060006001600083815260200190815260200160002060000180546107199061144e565b90501161075b576040517f08c379a000000000000000000000000000000000000000000000000000000000815260040161075290611264565b60405180910390fd5b60016000828152602001908152602001600020600201805480602002602001604051908101604052809291908181526020016000905b8282101561083d5783829060005260206000200180546107b09061144e565b80601f01602080910402602001604051908101604052809291908181526020018280546107dc9061144e565b80156108295780601f106107fe57610100808354040283529160200191610829565b820191906000526020600020905b81548152906001019060200180831161080c57829003601f168201915b505050505081526020019060010190610791565b50505050915050919050565b60008054905090565b60008311610895576040517f08c379a000000000000000000000000000000000000000000000000000000000815260040161088c90611284565b60405180910390fd5b60008251116108d9576040517f08c379a00000000000000000000000000000000000000000000000000000000081526004016108d090611244565b60405180910390fd5b600081511161091d576040517f08c379a000000000000000000000000000000000000000000000000000000000815260040161091490611224565b60405180910390fd5b826000819055507f70fc7d66686bb9a40f0b9075882d22a152689e4619fc666c06c2b3b51befa3c8838383604051610957939291906112bf565b60405180910390a1505050565b606060008260405160200161097991906111c9565b60405160208183030381529060405280519060200120905060006001600083815260200190815260200160002060000180546109b49061144e565b9050116109f6576040517f08c379a00000000000000000000000000000000000000000000000000000000081526004016109ed90611264565b60405180910390fd5b600160008281526020019081526020016000206003018054610a179061144e565b80601f0160208091040260200160405190810160405280929190818152602001828054610a439061144e565b8015610a905780601f10610a6557610100808354040283529160200191610a90565b820191906000526020600020905b815481529060010190602001808311610a7357829003601f168201915b5050505050915050919050565b60008082604051602001610ab191906111c9565b6040516020818303038152906040528051906020012090506000600160008381526020019081526020016000206000018054610aec9061144e565b905011610b2e576040517f08c379a0000000000000000000000000000000000000000000000000000000008152600401610b2590611264565b60405180910390fd5b6001600082815260200190815260200160002060040154915050919050565b828054610b599061144e565b90600052602060002090601f016020900481019282610b7b5760008555610bc2565b82601f10610b9457805160ff1916838001178555610bc2565b82800160010185558215610bc2579182015b82811115610bc1578251825591602001919060010190610ba6565b5b509050610bcf9190610c33565b5090565b828054828255906000526020600020908101928215610c22579160200282015b82811115610c21578251829080519060200190610c11929190610b4d565b5091602001919060010190610bf3565b5b509050610c2f9190610c50565b5090565b5b80821115610c4c576000816000905550600101610c34565b5090565b5b80821115610c705760008181610c679190610c74565b50600101610c51565b5090565b508054610c809061144e565b6000825580601f10610c925750610cb1565b601f016020900490600052602060002090810190610cb09190610c33565b5b50565b6000610cc7610cc284611335565b611304565b9050808382526020820190508260005b85811015610d075781358501610ced8882610d79565b845260208401935060208301925050600181019050610cd7565b5050509392505050565b6000610d24610d1f84611361565b611304565b905082815260208101848484011115610d3c57600080fd5b610d4784828561140c565b509392505050565b600082601f830112610d6057600080fd5b8135610d70848260208601610cb4565b91505092915050565b600082601f830112610d8a57600080fd5b8135610d9a848260208601610d11565b91505092915050565b600081359050610db2816114ef565b92915050565b600060208284031215610dca57600080fd5b600082013567ffffffffffffffff811115610de457600080fd5b610df084828501610d79565b91505092915050565b600080600080600080600060e0888a031215610e1457600080fd5b600088013567ffffffffffffffff811115610e2e57600080fd5b610e3a8a828b01610d79565b9750506020610e4b8a828b01610da3565b965050604088013567ffffffffffffffff811115610e6857600080fd5b610e748a828b01610d4f565b955050606088013567ffffffffffffffff811115610e9157600080fd5b610e9d8a828b01610d79565b9450506080610eae8a828b01610da3565b93505060a088013567ffffffffffffffff811115610ecb57600080fd5b610ed78a828b01610d79565b92505060c088013567ffffffffffffffff811115610ef457600080fd5b610f008a828b01610d4f565b91505092959891949750929550565b600080600060608486031215610f2457600080fd5b6000610f3286828701610da3565b935050602084013567ffffffffffffffff811115610f4f57600080fd5b610f5b86828701610d79565b925050604084013567ffffffffffffffff811115610f7857600080fd5b610f8486828701610d79565b9150509250925092565b6000610f9a8383611017565b905092915050565b6000610fad826113a1565b610fb781856113c4565b935083602082028501610fc985611391565b8060005b858110156110055784840389528151610fe68582610f8e565b9450610ff1836113b7565b925060208a01995050600181019050610fcd565b50829750879550505050505092915050565b6000611022826113ac565b61102c81856113d5565b935061103c81856020860161141b565b611045816114de565b840191505092915050565b600061105b826113ac565b61106581856113e6565b935061107581856020860161141b565b61107e816114de565b840191505092915050565b6000611094826113ac565b61109e81856113f7565b93506110ae81856020860161141b565b80840191505092915050565b60006110c7601c836113e6565b91507f56656869636c65204944206d757374206e6f7420626520656d707479000000006000830152602082019050919050565b6000611107601a836113e6565b91507f547261636b204944206d757374206e6f7420626520656d7074790000000000006000830152602082019050919050565b60006111476011836113e6565b91507f56656869636c65206e6f7420666f756e640000000000000000000000000000006000830152602082019050919050565b6000611187601c836113e6565b91507f5370656564206d7573742062652067726561746572207468616e2030000000006000830152602082019050919050565b6111c381611402565b82525050565b60006111d58284611089565b915081905092915050565b600060208201905081810360008301526111fa8184610fa2565b905092915050565b6000602082019050818103600083015261121c8184611050565b905092915050565b6000602082019050818103600083015261123d816110ba565b9050919050565b6000602082019050818103600083015261125d816110fa565b9050919050565b6000602082019050818103600083015261127d8161113a565b9050919050565b6000602082019050818103600083015261129d8161117a565b9050919050565b60006020820190506112b960008301846111ba565b92915050565b60006060820190506112d460008301866111ba565b81810360208301526112e68185611050565b905081810360408301526112fa8184611050565b9050949350505050565b6000604051905081810181811067ffffffffffffffff8211171561132b5761132a6114af565b5b8060405250919050565b600067ffffffffffffffff8211156113505761134f6114af565b5b602082029050602081019050919050565b600067ffffffffffffffff82111561137c5761137b6114af565b5b601f19601f8301169050602081019050919050565b6000819050602082019050919050565b600081519050919050565b600081519050919050565b6000602082019050919050565b600082825260208201905092915050565b600082825260208201905092915050565b600082825260208201905092915050565b600081905092915050565b6000819050919050565b82818337600083830152505050565b60005b8381101561143957808201518184015260208101905061141e565b83811115611448576000848401525b50505050565b6000600282049050600182168061146657607f821691505b6020821081141561147a57611479611480565b5b50919050565b7f4e487b7100000000000000000000000000000000000000000000000000000000600052602260045260246000fd5b7f4e487b7100000000000000000000000000000000000000000000000000000000600052604160045260246000fd5b6000601f19601f8301169050919050565b6114f881611402565b811461150357600080fd5b5056fea264697066735822122093d36abeb357d598f19e05c4ead9b9f41218ad4c721c3bd474fa71715cda4ec364736f6c63430008000033",
  "immutableReferences": {},
  "source": "// SPDX-License-Identifier: MIT\npragma solidity ^0.8.0;\n\ncontract SmartContract {\n\n    struct Vehicle {\n        string id;\n        uint256 speed;\n        string[] route;\n        string current_edge_id;\n        uint256 route_index;\n        string next_edge;\n        string[] next_edge_vehicles;\n    }\n\n    uint256 public aggregatedSpeed;\n\n    // Updated event to include track ID and vehicle ID\n    event DataUpdated(uint256 newSpeed, string trackId, string vehicleId);\n\n    // Function to update aggregated speed data and emit event with additional parameters\n    function updateAggregatedData(uint256 _newSpeed, string memory _trackId, string memory _vehicleId) public {\n        require(_newSpeed > 0, \"Speed must be greater than 0\");\n        require(bytes(_trackId).length > 0, \"Track ID must not be empty\");\n        require(bytes(_vehicleId).length > 0, \"Vehicle ID must not be empty\");\n      \n        aggregatedSpeed = _newSpeed;\n        // Emit an event with the new speed, track ID, and vehicle ID\n        emit DataUpdated(_newSpeed, _trackId, _vehicleId);\n    }\n\n    // Optional: Function to retrieve the latest aggregated data\n    function getLatestAggregatedData() public view returns (uint256) {\n        return aggregatedSpeed;\n    }\n\n    // Define a mapping to store vehicle data by bytes32 (hash of the string id)\n    mapping (bytes32 => Vehicle) vehicles;\n\n    // Function to retrieve vehicle speed by ID\n    function getVehicleSpeed(string memory id) public view returns (uint256) {\n        bytes32 idHash = keccak256(abi.encodePacked(id));\n        require(bytes(vehicles[idHash].id).length > 0, \"Vehicle not found\");\n        return vehicles[idHash].speed;\n    }\n\n    function getVehicleCurrentEdge(string memory id) public view returns (string memory) {\n        bytes32 idHash = keccak256(abi.encodePacked(id));\n        require(bytes(vehicles[idHash].id).length > 0, \"Vehicle not found\");\n        return vehicles[idHash].current_edge_id;\n    }\n\n    function getVehicleRoute(string memory id) public view returns (string[] memory) {\n        bytes32 idHash = keccak256(abi.encodePacked(id));\n        require(bytes(vehicles[idHash].id).length > 0, \"Vehicle not found\");\n        return vehicles[idHash].route;\n    }\n\n    function getVehicleRouteIndex(string memory id) public view returns (uint256) {\n        bytes32 idHash = keccak256(abi.encodePacked(id));\n        require(bytes(vehicles[idHash].id).length > 0, \"Vehicle not found\");\n        return vehicles[idHash].route_index;\n    }\n\n    function getVehicleNextEdge(string memory id) public view returns (string memory) {\n        bytes32 idHash = keccak256(abi.encodePacked(id));\n        require(bytes(vehicles[idHash].id).length > 0, \"Vehicle not found\");\n        return vehicles[idHash].next_edge;\n    }\n\n    function getVehicleNextEdgeVehicles(string memory id) public view returns (string[] memory) {\n        bytes32 idHash = keccak256(abi.encodePacked(id));\n        require(bytes(vehicles[idHash].id).length > 0, \"Vehicle not found\");\n        return vehicles[idHash].next_edge_vehicles;\n    }\n\n    // Function to update vehicle data by ID\n    function updateVehicleInfo(\n        string memory id,\n        uint256 speed,\n        string[] memory route,\n        string memory current_edge_id,\n        uint256 route_index,\n        string memory next_edge,\n        string[] memory next_edge_vehicles\n    ) public {\n        bytes32 idHash = keccak256(abi.encodePacked(id));\n        vehicles[idHash] = Vehicle(id, speed, route, current_edge_id, route_index, next_edge, next_edge_vehicles);\n    }\n}\n",
  "sourcePath": "/home/muneeb/Thesis/thesis-project-with-fl-bl-up/contracts/SmartContract.sol",
  "compiler": {
    "name": "solc",
    "version": "0.8.0+commit.c7dfd78e.Emscripten.clang"
  },
  "schemaVersion": "3.4.16",
  "updatedAt": "2024-11-23T10:57:27.040Z",
  "networkType": "ethereum",
  "devdoc": {
    "kind": "dev",
    "methods": {},
    "version": 1
  },
  "userdoc": {
    "kind": "user",
    "methods": {},
    "version": 1
  }
}